S01300004C43445F4E45575F4B49542E73726563AE
S11300000C942A000C9447000C9447000C9447006D
S11300100C9447000C9447000C9447000C94470040
S11300200C9447000C9447000C9447000C94470030
S11300300C9447000C9447000C9447000C94470020
S11300400C9447000C9447000C9447000C94470010
S11300500C94470011241FBECFE5D8E0DEBFCDBF0E
S113006010E0A0E6B0E0E8EEF5E002C005900D92E5
S1130070A036B107D9F710E0A0E6B0E001C01D92A8
S1130080A036B107E1F70E94E8000C94F2020C9448
S1130090000082E463E041E00E94BC0181EE94E050
S11300A00197F1F700C0000082E463E040E00E94A1
S11300B0BC0181EE94E00197F1F700C000000895BF
S11300C0CF93C82F82E461E040E00E94BC0181E448
S11300D06C2F0E948E020E9449006C2F6295607FF3
S11300E081E40E948E020E944900CF91089581E428
S11300F06FEF0E94BA0282E461E040E00E942B01AB
S113010082E462E040E00E942B0182E463E040E08C
S11301100E942B0182E462E040E00E94BC0182E480
S113012061E040E00E94BC0181EE94E00197F1F7A8
S113013000C0000083E00E94600083E00E94600031
S113014083E00E94600082E00E94600088E20E94D6
S1130150600081E00E9460008EE00E9460008BE4F9
S11301609DE10197F1F700C000000895CF93C82FD7
S113017082E461E041E00E94BC0181E46C2F0E94B2
S11301808E020E9449006C2F6295607F81E40E9478
S11301908E020E944900CF910895CF93DF93EC0122
S11301A08881882331F021960E94B60089918823A2
S11301B0D9F7DF91CF91089581E00E9460000895FE
S11301C00E94080108950E940D019695879508954F
S11301D00E9477000E94E000DAE00E94E3006D2FA5
S11301E00E94E602C92F805D90E00E94B6008C2F29
S11301F0805D90E00E94B6008FEF99E6A8E18150FF
S11302009040A040E1F700C000000E94DC00E5CF70
S113021081E487B986E886B90895CF93DF9300D047
S1130220CDB7DEB71A821982369A349BFECF84B1D9
S113023090E09A83898345B129813A81942F80E0A3
S1130240822B932B9A83898384B195B10F900F905D
S1130250DF91CF910895843409F471C0853448F452
S1130260823499F1833408F04DC0813409F083C09D
S11302700FC0823651F1833620F4813609F07BC0F9
S113028007C0833609F43EC0843609F074C057C0F1
S1130290442369F42AB381E090E0AC0102C0440F26
S11302A0551F6A95E2F7BA01622B6ABB08952AB317
S11302B081E090E0AC0102C0440F551F6A95E2F75B
S11302C0BA01609562236ABB0895442369F427B395
S11302D081E090E0AC0102C0440F551F6A95E2F73B
S11302E0BA01622B67BB089527B381E090E0AC01AB
S11302F002C0440F551F6A95E2F7BA016095622364
S113030067BB0895442369F424B381E090E0AC0111
S113031002C0440F551F6A95E2F7BA01622B64BB11
S1130320089524B381E090E0AC0102C0440F551F4E
S11303306A95E2F7BA016095622364BB0895442389
S113034069F421B381E090E0AC0102C0440F551F71
S11303506A95E2F7BA01622B61BB089521B381E08B
S113036090E0AC0102C0440F551F6A95E2F7BA0150
S11303706095622361BB0895843409F471C08534A7
S113038048F4823499F1833408F04DC0813409F083
S113039083C00FC0823651F1833620F4813609F0D0
S11303A07BC007C0833609F43EC0843609F074C0AC
S11303B057C0413069F42BB381E090E0AC0102C036
S11303C0440F551F6A95E2F7BA01622B6BBB08957F
S11303D02BB381E090E0AC0102C0440F551F6A9535
S11303E0E2F7BA01609562236BBB0895413069F46A
S11303F028B381E090E0AC0102C0440F551F6A9518
S1130400E2F7BA01622B68BB089528B381E090E05B
S1130410AC0102C0440F551F6A95E2F7BA0160951A
S1130420622368BB0895413069F425B381E090E00C
S1130430AC0102C0440F551F6A95E2F7BA01622B62
S113044065BB089525B381E090E0AC0102C0440F80
S1130450551F6A95E2F7BA016095622365BB08955A
S1130460413069F422B381E090E0AC0102C0440F52
S1130470551F6A95E2F7BA01622B62BB089522B355
S113048081E090E0AC0102C0440F551F6A95E2F789
S1130490BA016095622362BB0895843499F185346E
S11304A038F48234D9F0833418F58134A9F50CC0BA
S11304B08236A1F0833618F4813671F505C083368F
S11304C0B9F0843649F51EC029B330E0C90102C031
S11304D0959587956A95E2F78170089526B330E083
S11304E0C90102C0959587956A95E2F781700895D0
S11304F023B330E0C90102C0959587956A95E2F768
S11305008170089520B330E0C90102C095958795A4
S11305106A95E2F78170089580E00895823491F03D
S1130520833418F4813429F505C0833499F0843474
S113053001F518C08BB38F708BBB8BB3607F682BB6
S11305406BBB089588B38F7088BB88B3607F682BBA
S113055068BB089585B38F7085BB85B3607F682BB6
S113056065BB089582B38F7082BB82B3607F682BB2
S113057062BB0895823491F0833418F4813429F5F0
S113058005C0833499F0843401F518C08AB38F70A0
S11305908ABB8AB3607F682B6ABB089587B38F7068
S11305A087BB87B3607F682B67BB089584B38F7064
S11305B084BB84B3607F682B64BB089581B38F7060
S11305C081BB81B3607F682B61BB0895991B79E07F
S11305D004C0991F961708F0961B881F7A95C9F7CF
S10B05E080950895F894FFCF03
S9030000FC
